:020000040800F2
:100000000050002025030008C9020008CF020008A4
:10001000D5020008DB020008E10200080000000031
:10002000000000000000000000000000E7020008DF
:10003000F302000800000000FF0200080B030008A4
:100040006D0300086D0300086D0300086D030008D0
:100050006D0300086D0300086D0300086D030008C0
:100060006D0300086D0300086D0300086D030008B0
:100070006D0300086D0300086D0300086D030008A0
:100080006D0300086D0300086D0300086D03000890
:100090006D0300086D0300086D0300086D03000880
:1000A0006D030008850100086D0300086D0300085A
:1000B0006D0300086D0300086D0300086D03000860
:1000C0006D0300086D0300086D0300086D03000850
:1000D0006D0300086D0300086D0300086D03000840
:1000E0006D0300086D0300086D03000800000000A8
:1000F0000000000000000000000000000000000000
:0C01000000000000000000005FF808F1A3
:10010C0010B5054C237833B9044B13B10448AFF345
:10011C0000800123237010BD0400002000000000AB
:10012C00DC03000808B5034B1BB103490348AFF3CC
:10013C00008008BD0000000008000020DC0300085F
:10014C0080B483B000AF0346FB7197F90730002BE6
:10015C000BDBFB7903F01F02064997F907305B09AB
:10016C00012000FA02F241F8232000BF0C37BD46F3
:10017C0080BC704700E100E080B400AF1E4B1B69EF
:10018C0003F00103002B32D01B4B1B691A4A23F0DE
:10019C0001031361194B1B889AB2174B5A63184B06
:1001AC001B78DBB2002B01D00A2301E06FF00903AE
:1001BC009AB2124B1B889BB213449AB20F4B1A8003
:1001CC000E4B1B889BB2B3F5FA6F05D20B4B1B88F9
:1001DC009BB2B3F57A7F0AD8094B1B78DBB2002BA4
:1001EC000CBF01230023DBB21A46054B1A7000BF6B
:1001FC00BD4680BC704700BF002C014000000020B1
:10020C000200002080B500AF1C4B9B691B4A43F4D5
:10021C00006393611A4B00221A60194B1B68184A31
:10022C0043F080031360164B9B69154A43F060033F
:10023C009361134B1B6A124A43F001031362104B78
:10024C005B6C0F4A43F4004353640D4B44F61F623E
:10025C00DA620B4B4FF47A725A63094BDB68084A2B
:10026C0043F00103D3601920FFF76AFF044B1B68AE
:10027C00034A43F00103136000BF80BD001002402D
:10028C00002C014080B500AF0A4B9B69094A43F032
:10029C0004039361084B5B68074A23F00F03536018
:1002AC00054B5B68044A43F002035360FFF7AAFF57
:1002BC00FEE700BF001002400008014080B400AF10
:1002CC00FEE780B400AFFEE780B400AFFEE780B479
:1002DC0000AFFEE780B400AFFEE780B400AF00BF14
:1002EC00BD4680BC704780B400AF00BFBD4680BC2B
:1002FC00704780B400AF00BFBD4680BC704780B56E
:10030C0000AF00F02FF800BF80BD80B400AF00BF7D
:10031C00BD4680BC70470000FFF7F7FF0B480C4947
:10032C000C4A002302E0D458C4500433C4188C4245
:10033C00F9D3094A094C002301E013600432A242AC
:10034C00FBD300F021F8FFF79DFF70470000002061
:10035C0004000020FC0300080400002024000020FE
:10036C00FEE7000080B400AF054B1B781A46054B26
:10037C001B681344034A136000BFBD4680BC704722
:10038C00030000202000002070B500260C4D0D4C01
:10039C00641BA410A64209D100F01AF800260A4DDD
:1003AC000A4C641BA410A64205D170BD55F8043B41
:1003BC0098470136EEE755F8043B98470136F2E7CB
:1003CC00F4030008F4030008F4030008F803000821
:1003DC00F8B500BFF8BC08BC9E467047F8B500BF26
:0803EC00F8BC08BC9E467047F6
:0403F40031010008CB
:0403F8000D010008EB
:0403FC00E803010110
:0400000508000325C7
:00000001FF
