:020000040800F2
:100000000028002041020008E7010008ED01000877
:10001000F3010008F9010008FF01000800000000DA
:1000200000000000000000000000000005020008C1
:1000300011020008000000001D020008290200084B
:100040008902000889020008890200088902000864
:100050008902000889020008890200088902000854
:1000600089020008890200084D0100088902000881
:100070008902000889020008890200088902000834
:100080008902000889020008890200088902000824
:100090008902000889020008890200088902000814
:1000A0008902000889020008890200088902000804
:1000B0008902000889020008000000008902000887
:1000C000890200080000000000000000890200080A
:1000D00000000000890200088902000800000000FA
:1000E0008902000889020008890200080000000057
:1000F0000000000000000000000000000000000000
:0C01000000000000000000005FF808F1A3
:10010C0010B5054C237833B9044B13B10448AFF345
:10011C0000800123237010BD0400002000000000AB
:10012C00F802000808B5034B1BB103490348AFF3B1
:10013C00008008BD0000000008000020F802000844
:10014C0080B400AF094B5B6903F01003002B08D09F
:10015C00064B10225A61064BDB68054A83F00203FA
:10016C00D36000BFBD4680BC704700BF0004014097
:10017C000008014080B400AF0F4B0D229A610F4B69
:10018C004FF033321A600E4B4FF044321A600D4B65
:10019C000122DA600C4B10221A600B4B10225A60B1
:1001AC00094B10229A60094B4FF480621A6000BF11
:1001BC00BD4680BC704700BF0010024000080140E3
:1001CC00000C0140000001400004014000E100E08F
:1001DC0080B500AFFFF7CEFFFEE780B400AFFEE7BF
:1001EC0080B400AFFEE780B400AFFEE780B400AF90
:1001FC00FEE780B400AFFEE780B400AF00BFBD46A1
:10020C0080BC704780B400AF00BFBD4680BC704757
:10021C0080B400AF00BFBD4680BC704780B500AF56
:10022C0000F02EF800BF80BD80B400AF00BFBD460B
:10023C0080BC7047FFF7F8FF0B480C490C4A0023B1
:10024C0002E0D458C4500433C4188C42F9D3094A80
:10025C00094C002301E013600432A242FBD300F0EE
:10026C0021F8FFF7B5FF70470000002004000020C4
:10027C00180300080400002024000020FEE7000002
:10028C0080B400AF054B1B781A46054B1B68134412
:10029C00034A136000BFBD4680BC704700000020BD
:1002AC002000002070B500260C4D0D4C641BA410D2
:1002BC00A64209D100F01AF800260A4D0A4C641B1C
:1002CC00A410A64205D170BD55F8043B98470136E1
:1002DC00EEE755F8043B98470136F2E710030008A7
:1002EC00100300081003000814030008F8B500BF41
:1002FC00F8BC08BC9E467047F8B500BFF8BC08BCFB
:04030C009E46704752
:0403100031010008AF
:040314000D010008CF
:0403180001000000E0
:0400000508000241AC
:00000001FF
