:020000040800F2
:1000000000500020C50200086B02000871020008C1
:10001000770200087D02000883020008000000004B
:10002000000000000000000000000000890200083D
:100030009502000800000000A1020008AD020008BF
:100040000D0300080D0300080D0300080D03000850
:100050000D0300080D0300080D0300080D03000840
:100060000D0300080D0300080D0300080D03000830
:100070000D0300080D0300080D0300080D03000820
:100080000D0300080D0300080D0300080D03000810
:100090000D0300080D0300080D0300080D03000800
:1000A0000D0300080D0300080D0300080D030008F0
:1000B0000D0300080D0300080D0300080D030008E0
:1000C0000D0300080D0300080D0300080D030008D0
:1000D0000D0300080D0300080D0300080D030008C0
:1000E0000D0300080D0300080D03000800000000C8
:1000F0000000000000000000000000000000000000
:0C01000000000000000000005FF808F1A3
:10010C0010B5054C237833B9044B13B10448AFF345
:10011C0000800123237010BD0400002000000000AB
:10012C007C03000808B5034B1BB103490348AFF32C
:10013C00008008BD00000000080000207C030008BF
:10014C0080B483B000AF7860264B9B69254A43F09E
:10015C0004039361244B1B68234A43F0A0031360F0
:10016C00204BDB691F4A43F00103D3614FF08043FE
:10017C0047229A624FF0804344F61F62DA624FF0D6
:10018C00804340F2DC529A634FF080439B694FF0FE
:10019C00804243F4C04393614FF080439B694FF01E
:1001AC00804223F4805393614FF080439B694FF05E
:1001BC00804243F4006393614FF080431B6A4FF01D
:1001CC00804243F0100313624FF080431B684FF0E2
:1001DC00804243F0010313607B6818460C37BD4620
:1001EC0080BC7047001002400008014080B485B00C
:1001FC0000AF78600B46FB70FB789BB21A469200FE
:10020C0013449B009BB203F5FA73FB814FF08042C1
:10021C00FB89936300BF1437BD4680BC704780B523
:10022C0084B000AF3B1D1846FFF78AFF0023FB7319
:10023C0011E0FA7B3B1D11461846FFF7D7FF002350
:10024C00BB6002E0BB680133BB60BB68632BF9DDAC
:10025C00FB7B0A33FB73FB7BB42BEAD9E6E780B458
:10026C0000AFFEE780B400AFFEE780B400AFFEE75E
:10027C0080B400AFFEE780B400AFFEE780B400AFFF
:10028C0000BFBD4680BC704780B400AF00BFBD4608
:10029C0080BC704780B400AF00BFBD4680BC7047C7
:1002AC0080B500AF00F02EF800BF80BD80B400AF69
:1002BC0000BFBD4680BC7047FFF7F8FF0B480C49E8
:1002CC000C4A002302E0D458C4500433C4188C42A6
:1002DC00F9D3094A094C002301E013600432A2420D
:1002EC00FBD300F021F8FFF79AFF704700000020C5
:1002FC00040000209C0300080400002024000020BF
:10030C00FEE7000080B400AF054B1B781A46054B86
:10031C001B681344034A136000BFBD4680BC704782
:10032C00000000202000002070B500260C4D0D4C64
:10033C00641BA410A64209D100F01AF800260A4D3D
:10034C000A4C641BA410A64205D170BD55F8043BA1
:10035C0098470136EEE755F8043B98470136F2E72B
:10036C009403000894030008940300089803000801
:10037C00F8B500BFF8BC08BC9E467047F8B500BF86
:08038C00F8BC08BC9E46704756
:04039400310100082B
:040398000D0100084B
:04039C00010000005C
:04000005080002C528
:00000001FF
