:020000040800F2
:1000000000500020F90200089D020008A302000829
:10001000A9020008AF020008B502000800000000B5
:10002000000000000000000000000000BB0200080B
:10003000C702000800000000D3020008DF02000829
:100040004103000841030008410300084103000880
:100050004103000841030008410300084103000870
:100060004103000841030008410300084103000860
:100070004103000841030008410300084103000850
:100080004103000841030008410300084103000840
:100090004103000841030008410300084103000830
:1000A0004103000841030008410300084103000820
:1000B0004103000841030008410300084103000810
:1000C0004103000841030008410300084103000800
:1000D00041030008410300084103000841030008F0
:1000E000410300084103000841030008000000002C
:1000F0000000000000000000000000000000000000
:0C01000000000000000000005FF808F1A3
:10010C0010B5054C237833B9044B13B10448AFF345
:10011C0000800123237010BD0400002000000000AB
:10012C00B003000808B5034B1BB103490348AFF3F8
:10013C00008008BD0000000008000020B00300088B
:10014C0080B400AF1C4B9B691B4A43F4805343F0B3
:10015C0004039361194B1B68184A23F47C13136036
:10016C00164B1B68154A43F404131360144B1B689D
:10017C00134A23F040031360114B00221A60104BFA
:10018C001B680F4A43F02C0313600D4B1B680C4A81
:10019C0043F4407313600A4B5B68094A43F0040351
:1001AC005360074B1B68064A43F04003136000BFC3
:1001BC00BD4680BC704700BF0010024000080140E3
:1001CC000030014080B483B000AF0346FB7100BF28
:1001DC00064B9B6803F00203002BF9D0034AFB7912
:1001EC00D36000BF0C37BD4680BC70470030014067
:1001FC0080B400AF00BF064B9B6803F00103002BDB
:10020C00F9D0034BDB68DBB21846BD4680BC7047A7
:10021C000030014090B587B000AFF860B96013466C
:10022C00FB800023FB8210E0FB8AFA6813441B78E6
:10023C001846FFF7C7FFFB8ABA68D418FFF7D8FF38
:10024C0003462370FB8A0133FB82FA8AFB889A42AD
:10025C00EAD300BF00BF1C37BD4690BD80B584B04B
:10026C0000AFFFF76DFF094BBB60391D07F10803A9
:10027C0004221846FFF7CEFF0023FB6002E0FB6868
:10028C000133FB60FB68032BF9D9EEE70102030491
:10029C0080B400AFFEE780B400AFFEE780B400AFDF
:1002AC00FEE780B400AFFEE780B400AFFEE780B499
:1002BC0000AF00BFBD4680BC704780B400AF00BF2C
:1002CC00BD4680BC704780B400AF00BFBD4680BC4B
:1002DC00704780B500AF00F02FF800BF80BD80B430
:1002EC0000AF00BFBD4680BC70470000FFF7F7FFB2
:1002FC000B480C490C4A002302E0D458C450043378
:10030C00C4188C42F9D3094A094C002301E013604C
:10031C000432A242FBD300F021F8FFF79FFF704795
:10032C000000002004000020D0030008040000207E
:10033C0024000020FEE7000080B400AF054B1B78C2
:10034C001A46054B1B681344034A136000BFBD4695
:10035C0080BC7047000000202000002070B50026F3
:10036C000C4D0D4C641BA410A64209D100F01AF8D8
:10037C0000260A4D0A4C641BA410A64205D170BD80
:10038C0055F8043B98470136EEE755F8043B98477F
:10039C000136F2E7C8030008C8030008C8030008C8
:1003AC00CC030008F8B500BFF8BC08BC9E467047EB
:0C03BC00F8B500BFF8BC08BC9E467047B6
:0403C80031010008F7
:0403CC000D01000817
:0403D0000100000028
:04000005080002F9F4
:00000001FF
