:020000040800F2
:1000000000500020DD03000881030008870300087A
:100010008D03000893030008990300080000000006
:100020000000000000000000000000009F03000826
:10003000AB03000800000000B7030008C30300087A
:1000400025040008250400082504000825040008EC
:1000500025040008250400082504000825040008DC
:1000600025040008250400082504000825040008CC
:1000700025040008250400082504000825040008BC
:1000800025040008250400082504000825040008AC
:10009000250400082504000825040008250400089C
:1000A000250400082504000825040008250400088C
:1000B000250400082504000825040008250400087C
:1000C000250400082504000825040008250400086C
:1000D000250400082504000825040008250400085C
:1000E000250400082504000825040008000000007D
:1000F0000000000000000000000000000000000000
:0C01000000000000000000005FF808F1A3
:10010C0010B5054C237833B9044B13B10448AFF345
:10011C0000800123237010BD0400002000000000AB
:10012C009404000808B5034B1BB103490348AFF313
:10013C00008008BD000000000800002094040008A6
:10014C0080B483B000AF78607B6818460C37BD462E
:10015C0080BC704780B483B000AF786039603B6876
:10016C0018460C37BD4680BC7047000080B483B085
:10017C0000AF786039601C4B9B691B4A43F40063E9
:10018C0043F005039361194B5B68184A23F47043E1
:10019C005360164B5B68154A43F4304353607B68DD
:1001AC0000221A607B6847229A627B683A68DA629E
:1001BC007B68DB6943F4D0427B68DA617B684FF47F
:1001CC0080521A627B685B6C43F400427B685A6411
:1001DC007B681B6843F001027B681A6000BF0C3718
:1001EC00BD4680BC704700BF0010024000080140B3
:1001FC0080B487B000AFF860B9607A60BB687A6889
:10020C0002FB03F3064AA2FB03235B097B61FB6839
:10021C007A691A6400BF1C37BD4680BC704700BFAA
:10022C001F85EB5180B400AF244B12221A60244B73
:10023C001B68234A43F48033136000BF204B1B68B8
:10024C0003F40033002B0CBF01230023DBB2002B83
:10025C00F4D11B4B1B681A4A43F080631360184B94
:10026C005B68174A43F480335360154B5B68144A40
:10027C0043F4E0135360124B5B68114A43F4806300
:10028C0053600F4B1B680E4A43F08073136000BF22
:10029C000B4B1B6803F00073002B0CBF01230023D6
:1002AC00DBB2002BF4D1064B5B68054A43F002032A
:1002BC00536000BFBD4680BC704700BF00200240A9
:1002CC000010024090B583B000AF78607B6844F6B4
:1002DC0020621A607B6800225A600B495020FFF79D
:1002EC0039FF04462046FFF72BFF7B685C607B6878
:1002FC005A687B681B6819461046FFF737FF7B6806
:10030C0018460C37BD4690BD002C014080B582B01C
:10031C0000AF786039607B6858687B681B683A6806
:10032C001946FFF765FF00BF0837BD4680BD0000CA
:10033C0080B584B000AF0D4B44F620621A60FFF715
:10034C0071FF3B1D1846FFF7BDFF3B1D40F27E4180
:10035C001846FFF7DBFF0023FB6002E0FB6801336C
:10036C00FB60FB68024A9342F8D8EEE720000020BD
:10037C004054890080B400AFFEE780B400AFFEE7C4
:10038C0080B400AFFEE780B400AFFEE780B400AFEE
:10039C00FEE780B400AF00BFBD4680BC704780B4A0
:1003AC0000AF00BFBD4680BC704780B400AF00BF3B
:1003BC00BD4680BC704780B500AF00F02FF800BF81
:1003CC0080BD80B400AF00BFBD4680BC704700004C
:1003DC00FFF7F7FF0B480C490C4A002302E0D458F6
:1003EC00C4500433C4188C42F9D3094A094C002375
:1003FC0001E013600432A242FBD300F021F8FFF7B6
:10040C0097FF70470000002004000020B40400088F
:10041C000400002028000020FEE7000080B400AF9C
:10042C00054B1B781A46054B1B681344034A136093
:10043C0000BFBD4680BC7047000000202400002097
:10044C0070B500260C4D0D4C641BA410A64209D1AE
:10045C0000F01AF800260A4D0A4C641BA410A642A0
:10046C0005D170BD55F8043B98470136EEE755F8B9
:10047C00043B98470136F2E7AC040008AC040008D2
:10048C00AC040008B0040008F8B500BFF8BC08BC08
:10049C009E467047F8B500BFF8BC08BC9E46704736
:0404AC003101000812
:0404B0000D01000832
:0404B4000100000043
:04000005080003DD0F
:00000001FF
