:020000040800F2
:1000000000500020D5030008790300087F03000892
:10001000850300088B03000891030008000000001E
:10002000000000000000000000000000970300082E
:10003000A303000800000000AF030008BB03000892
:100040001D0400081D0400081D0400081D0400080C
:100050001D0400081D0400081D0400081D040008FC
:100060001D0400081D0400081D0400081D040008EC
:100070001D0400081D0400081D0400081D040008DC
:100080001D0400081D0400081D0400081D040008CC
:100090001D0400081D0400081D0400081D040008BC
:1000A0001D0400081D0400081D0400081D040008AC
:1000B0001D0400081D0400081D0400081D0400089C
:1000C0001D0400081D0400081D0400081D0400088C
:1000D0001D0400081D0400081D0400081D0400087C
:1000E0001D0400081D0400081D0400080000000095
:1000F0000000000000000000000000000000000000
:0C01000000000000000000005FF808F1A3
:10010C0010B5054C237833B9044B13B10448AFF345
:10011C0000800123237010BD0400002000000000AB
:10012C008C04000808B5034B1BB103490348AFF31B
:10013C00008008BD00000000080000208C040008AE
:10014C0080B483B000AF03460A46FB711346BB7103
:10015C00FB79002B0AD00D4B9B69BA79012101FA6E
:10016C0002F21146094A0B4393610AE0074B9B6963
:10017C00BA79012101FA02F2D2431146034A0B402B
:10018C00936100BF0C37BD4680BC70470010024025
:10019C0080B485B000AFF860B96011461A460B46C2
:1001AC00FB711346BB71FB68BA681A60FB68FA797D
:1001BC001A71FB79072B05D8BB791A01FB681B68F0
:1001CC001A600AE0FB79072B07D9FB790F2B04D8AF
:1001DC00BB791A01FB681B685A60FB681846143718
:1001EC00BD4680BC704780B483B000AF78607B683C
:1001FC001B68DA687B681B79194601238B4019460A
:10020C007B681B680A43DA6000BF0C37BD4680BCB4
:10021C00704780B483B000AF78607B681B68DA6885
:10022C007B681B79194601238B40DB4319467B689D
:10023C001B680A40DA6000BF0C37BD4680BC7047B3
:10024C0080B485B000AFF860B96011461A460B4611
:10025C00FB711346BB71FB68BA681A60FB68FA79CC
:10026C001A71FB681B79072B08D8BA79FB681B79C4
:10027C009B009A40FB681B681A6009E0BA79FB681E
:10028C001B7903F007039B009A40FB681B685A60BC
:10029C00FB6818461437BD4680BC704780B485B0E7
:1002AC0000AF78607B681B689B68DAB27B681B794F
:1002BC00194601238B40DBB21340FB73FB7B002BF5
:1002CC0014BF01230023DBB218461437BD4680BC93
:1002DC007047000080B483B000AF00237B6002E065
:1002EC007B6801337B607B68044A9342F8DD00BF76
:1002FC0000BF0C37BD4680BC704700BF9F86010015
:10030C0080B586B000AF02210120FFF719FF032151
:10031C000120FFF715FF07F10C00032301221149FF
:10032C00FFF736FF381D042304220F49FFF788FF1F
:10033C003B1D1846FFF7B2FF0346FB75FB7D002BF8
:10034C0006D107F10C031846FFF74DFFFFF7C2FF6C
:10035C00FB7D012BECD107F10C031846FFF759FF7D
:10036C00E6E700BF00080140000C014080B400AF7C
:10037C00FEE780B400AFFEE780B400AFFEE780B4C8
:10038C0000AFFEE780B400AFFEE780B400AF00BF63
:10039C00BD4680BC704780B400AF00BFBD4680BC7A
:1003AC00704780B400AF00BFBD4680BC704780B5BD
:1003BC0000AF00F02FF800BF80BD80B400AF00BFCD
:1003CC00BD4680BC70470000FFF7F7FF0B480C4997
:1003DC000C4A002302E0D458C4500433C4188C4295
:1003EC00F9D3094A094C002301E013600432A242FC
:1003FC00FBD300F021F8FFF783FF704700000020CB
:10040C0004000020AC04000804000020240000209C
:10041C00FEE7000080B400AF054B1B781A46054B75
:10042C001B681344034A136000BFBD4680BC704771
:10043C00000000202000002070B500260C4D0D4C53
:10044C00641BA410A64209D100F01AF800260A4D2C
:10045C000A4C641BA410A64205D170BD55F8043B90
:10046C0098470136EEE755F8043B98470136F2E71A
:10047C00A4040008A4040008A4040008A8040008AC
:10048C00F8B500BFF8BC08BC9E467047F8B500BF75
:08049C00F8BC08BC9E46704745
:0404A400310100081A
:0404A8000D0100083A
:0404AC00010000004B
:04000005080003D517
:00000001FF
