:020000040800F2
:100000000050002051030008F5020008FB02000820
:1000100001030008070300080D03000800000000AA
:1000200000000000000000000000000013030008B2
:100030001F030008000000002B030008370300081E
:100040009903000899030008990300089903000820
:100050009903000899030008990300089903000810
:100060009903000899030008990300089903000800
:1000700099030008990300089903000899030008F0
:1000800099030008990300089903000899030008E0
:1000900099030008990300089903000899030008D0
:1000A00099030008990300089903000899030008C0
:1000B00099030008990300089903000899030008B0
:1000C00099030008990300089903000899030008A0
:1000D0009903000899030008990300089903000890
:1000E0009903000899030008990300080000000024
:1000F0000000000000000000000000000000000000
:0C01000000000000000000005FF808F1A3
:1001100010B5054C237833B9044B13B10448AFF341
:1001200000800123237010BD0400002000000000A7
:100130000804000808B5034B1BB103490348AFF39B
:10014000008008BD0000000008000020080400082E
:100150004A0011D212F5001211D20DD56FF4787346
:10016000B3EB62520ED44FEAC12343F0004343EA9B
:10017000505323FA02F070474FF00000704750EAE6
:10018000013002D14FF0FF3070474FF00000704750
:1001900080B400AF044BDB68034A43F40053D360E0
:1001A00000BFBD4680BC70470010014080B400AF66
:1001B000044BDB68034A23F40053D36000BFBD4601
:1001C00080BC70470010014080B400AF064B9B69B3
:1001D000054A43F010039361044B4FF440125A60F8
:1001E00000BFBD4680BC70470010024000100140B7
:1001F00080B483B000AF0346FB71084AFB795360BB
:1002000000BF064B1B6803F08003002BF9D000BF32
:1002100000BF0C37BD4680BC704700BF00380140AE
:1002200080B584B000AF78600023FB6009E0FB6814
:100230007A6813441B781846FFF7DAFFFB6801332E
:10024000FB60FB687A6813441B78002BEFD100BF7A
:1002500000BF1037BD4680BD90B585B000AF204BC4
:1002600044F205029A61FFF7AFFF1E4BB0225A60BD
:100270001C4B5B681B4A43F48063536016A3D3E9AD
:100280000023C7E90223184CD7E90201FFF760FFFA
:100290000346A360144B0C22DA60134BDB68124A4E
:1002A00043F40053D36000BF0F4B1B6803F02003DF
:1002B000002BF9D00C4B5B68FB71FB79772B05D1D8
:1002C000FFF766FF0948FFF7ABFFECE7FFF76EFFAC
:1002D0000748FFF7A5FFE6E70000000000088A4096
:1002E00000100240000801400038014020040008CE
:1002F0002C04000880B400AFFEE780B400AFFEE736
:1003000080B400AFFEE780B400AFFEE780B400AF7A
:10031000FEE780B400AF00BFBD4680BC704780B42C
:1003200000AF00BFBD4680BC704780B400AF00BFC7
:10033000BD4680BC704780B500AF00F02FF800BF0D
:1003400080BD80B400AF00BFBD4680BC70470000D8
:10035000FFF7F7FF0B480C490C4A002302E0D45882
:10036000C4500433C4188C42F9D3094A094C002301
:1003700001E013600432A242FBD300F021F8FFF742
:100380006BFF7047000000200400002044040008B8
:100390000400002024000020FEE7000080B400AF2D
:1003A000054B1B781A46054B1B681344034A136020
:1003B00000BFBD4680BC7047000000202000002028
:1003C00070B500260C4D0D4C641BA410A64209D13B
:1003D00000F01AF800260A4D0A4C641BA410A6422D
:1003E00005D170BD55F8043B98470136EEE755F846
:1003F000043B98470136F2E73C0400083C0400083F
:100400003C04000840040008F8B500BFF8BC08BC74
:100410009E467047F8B500BFF8BC08BC9E467047C2
:100420004C4544206973204F4E0D0A004C45442032
:0C0430006973204F46460D0A00000000D2
:04043C00350100087E
:04044000110100089E
:0404440001000000B3
:04000005080003519B
:00000001FF
