:020000040800F2
:1000000000500020991E0008E11E0008E11E0008B3
:10001000E11E0008E11E0008E11E000800000000CB
:100020000000000000000000000000009105000832
:10003000E11E00080000000091060008D906000833
:10004000E11E0008E11E0008E11E0008E11E000894
:10005000E11E0008E11E0008E11E0008E11E000884
:10006000E11E0008E11E0008E11E0008E11E000874
:10007000E11E0008E11E0008E11E0008E11E000864
:10008000E11E0008E11E0008E11E0008E11E000854
:10009000E11E0008E11E0008E11E0008E11E000844
:1000A000E11E0008E11E0008E11E0008E11E000834
:1000B000E11E0008E11E0008E11E0008E11E000824
:1000C000E11E0008E11E0008E11E0008E11E000814
:1000D000E11E0008E11E0008E11E0008E11E000804
:1000E000E11E0008E11E0008E11E000800000000FB
:1000F0000000000000000000000000000000000000
:0C01000000000000000000005FF808F1A3
:1001100010B5054C237833B9044B13B10448AFF341
:1001200000800123237010BD0C000020000000009F
:10013000581F000808B5034B1BB103490348AFF330
:10014000008008BD0000000010000020581F0008BB
:1001500080B588B000AF786000237B6101F012F8B1
:10016000454B1B68002B04D100F0C8F8424B01221C
:100170001A607B68002B1BD008231A467B68134447
:100180007A689A4214D208231A467B6813447B602B
:100190007B6823F0070308337A689A4205D27B68AC
:1001A00023F0070308337B6004E000237B6001E059
:1001B00000237B607B68002B57D0304B1B687A682C
:1001C0009A4252D82E4BBB612D4B1B68FB6104E059
:1001D000FB69BB61FB691B68FB61FB695B687A6853
:1001E0009A4203D9FB691B68002BF1D1FB69254AB0
:1001F00093423AD0BB691B68082213447B61FB69B8
:100200001A68BB691A60FB695A687B68D31A0822AE
:100210005200934222D9FA697B681344FB60FB6960
:100220005A687B68D21AFB685A60FB697A685A6020
:10023000FB685B68BB60124B3B6102E03B691B687B
:100240003B613B691B685B68BA689A42F6D83B69B8
:100250001A68FB681A603B69FA681A60074B1A68EB
:10026000FB695B68D31A054A136000F099FF7B694C
:1002700018462037BD4680BD3828002000000020E9
:10028000282800203028002080B586B000AF786094
:100290007B683B617B68002B27D008235B423A696F
:1002A00013443B613B69FB6000F06CFFFB685B68DB
:1002B000BB60104B7B6102E07B691B687B617B69E3
:1002C0001B685B68BA689A42F6D87B691A68FB6853
:1002D0001A607B69FA681A60FB685A68064B1B68EB
:1002E0001344054A136000F05BFF00BF1837BD469A
:1002F00080BD00BF282800200000002080B483B00B
:1003000000AF0F4B23F007037B600E4A7B6813603E
:100310000C4B00225A600C4B42F2F8725A600A4BA6
:1003200000221A607B683B603B6842F2F8725A60B8
:100330003B68054A1A6000BF0C37BD4680BC704759
:100340002F000020282800203028002080B483B00F
:1003500000AF78607B6803F108027B685A607B68B5
:100360004FF0FF329A607B6803F108027B68DA6025
:100370007B6803F108027B681A617B6800221A60BF
:1003800000BF0C37BD4680BC704780B483B000AF5F
:1003900078607B6800221A6100BF0C37BD4680BCC4
:1003A000704780B485B000AF786039603B681B68E7
:1003B000BB60BB68B3F1FF3F03D17B681B69FB6087
:1003C0000CE07B680833FB6002E0FB685B68FB6065
:1003D000FB685B681B68BA689A42F6D2FB685A6889
:1003E0003B685A603B685B683A689A603B68FA68A9
:1003F0009A60FB683A685A603B687A681A617B6861
:100400001B685A1C7B681A6000BF1437BD4680BC4D
:10041000704780B485B000AF78607B681B69FB6073
:100420007B685B687A6892689A607B689B687A6888
:1004300052685A60FB685B687A689A4203D17B68AD
:100440009A68FB685A607B6800221A61FB681B6827
:100450005A1EFB681A60FB681B6818461437BD46B5
:1004600080BC704780B582B002AF012000F060FA16
:100470000346134A1360124B1B68002B1ED0114B0E
:1004800004229A61104B4FF44C721A6000230193BE
:100490000223009300234FF496720C490C4800F09D
:1004A000D8FC002301930223009300234FF496729B
:1004B0000849074800F0CDFC00F028FEFEE700BF29
:1004C0003C2800200010024000080140701F000876
:1004D000D9040008781F000880B582B000AF7860AA
:1004E000074B1B684FF0FF31184600F0E3FA044B4E
:1004F000186800230022002100F032FAF0E700BF64
:100500003C28002080B485B000AFF860B9607A6004
:10051000FB68043BFB60FB684FF080721A60FB686D
:10052000043BFB60BB6823F00102FB681A60FB68B8
:10053000043BFB60084AFB681A60FB68143BFB60E5
:100540007A68FB681A60FB68203BFB60FB68184612
:100550001437BD4680BC70475D05000880B483B089
:1005600000AF00233B604FF0BF0383F31188BFF35C
:100570006F8FBFF34F8F7B6000BF00BF3B68002BC6
:10058000FCD000BF00BF0C37BD4680BC70470000E8
:10059000074B19680868B0E8F00F80F30988BFF3CB
:1005A0006F8F4FF0000080F311884EF00D0E7047F2
:1005B0004028002000BF00BF06480068006880F3A4
:1005C000088862B661B6BFF34F8FBFF36F8F00DF4D
:1005D00000BF000008ED00E000BF00BF80B500AF25
:1005E0000C4B1B680B4A43F47F031360094B1B68D9
:1005F000084A43F07F43136000F090F8064B002256
:100600001A60FFF7D9FF00F0BDFFFFF7A7FF002337
:10061000184680BD20ED00E00400002080B483B0C7
:1006200000AF4FF0BF0383F31188BFF36F8FBFF3A9
:100630004F8F7B6000BF054B1B680133034A13607B
:1006400000BF0C37BD4680BC704700BF04000020CF
:1006500080B483B000AF0A4B1B68013B084A1360AB
:10066000074B1B68002B05D100237B607B6883F35D
:10067000118800BF00BF0C37BD4680BC704700BF6B
:100680000400002000000000000000000000000046
:10069000EFF30980BFF36F8F0D4B1A6820E9F00F5D
:1006A00010602DE908404FF0BF0080F3118800F082
:1006B00069FF4FF0000080F31188BDE80840196819
:1006C0000868B0E8F00F80F30988BFF36F8F7047B8
:1006D0004028002000BF00BF80B582B000AF4FF0BF
:1006E000BF0383F31188BFF36F8FBFF34F8F7B601E
:1006F00000BF00F041FE0346002B03D0064B4FF035
:1007000080521A6000233B603B6883F3118800BF6E
:1007100000BF0837BD4680BD04ED00E080B400AFE7
:10072000084B00221A60084B00221A60074B41F662
:100730003F721A60034B07221A6000BFBD4680BC9F
:10074000704700BF10E000E018E000E014E000E0B7
:1007500080B584B000AF786039600123FB607B68AE
:10076000BB60BB68002B5DD0BB68DB6B002B59D036
:10077000BB681A6CBB68DB6B0021A3FB0223002B58
:1007800000D001210B46002B4CD1FFF747FFBB687F
:100790001A68BB68DB6BB968096C01FB03F31A4488
:1007A000BB689A60BB6800229A63BB681A68BB6822
:1007B0005A60BB681A68BB68DB6B013BB968096C9F
:1007C00001FB03F31A44BB68DA60BB68FF2283F8BD
:1007D0004420BB68FF2283F845203B68002B14D1DE
:1007E000BB681B69002B1AD0BB681033184600F099
:1007F00025FF0346002B12D00E4B4FF080521A609B
:10080000BFF34F8FBFF36F8F09E0BB6810331846FB
:10081000FFF79CFDBB6824331846FFF797FDFFF7F1
:1008200017FF01E00023FB60FB6818461037BD4648
:1008300080BD00BF04ED00E080B58AB002AFF86073
:10084000B9601346FB710023FB61FB68002B2DD0C0
:100850000021BA68FB68A3FB0223002B00D0012112
:100860000B46002B22D1FB68BA6802FB03F313F19D
:10087000510F1BD8FB68BA6802FB03F3BB61BB696D
:1008800050331846FFF764FCF861FB69002B0DD06C
:10089000FB697B617B6950337B61FA79FB6900936B
:1008A00013467A69B968F86800F005F8FB691846DC
:1008B0002037BD4680BD80B584B000AFF860B96018
:1008C0007A60FB70BB68002B03D1BB69BA691A6000
:1008D00002E0BB697A681A60BB69FA68DA63BB69CF
:1008E000BA681A640121B869FFF732FFBB69FA7868
:1008F00083F84C2000BF1037BD4680BD80B582B064
:1009000000AF78607B68002B0ED07B6800229A6075
:100910007B6800221A607B680022DA6000230022D4
:100920000021786800F01CF800BF0837BD4680BD84
:1009300080B586B000AF0346FB7101237B610023C5
:100940003B61FB791A4639697869FFF775FFF860F2
:10095000F868FFF7D3FFFB6818461837BD4680BD1F
:1009600080B58AB000AFF860B9607A603B60002360
:100970007B62FB683B62FFF751FE3B6A9A6B3B6A06
:10098000DB6B9A4202D33B68022B29D13A68B968E3
:10099000386A00F06EF9F8613B6A5B6A002B10D090
:1009A0003B6A2433184600F049FE0346002B13D05F
:1009B0003F4B4FF080521A60BFF34F8FBFF36F8FE2
:1009C0000AE0FB69002B07D0394B4FF080521A60C8
:1009D000BFF34F8FBFF36F8FFFF73AFE012363E042
:1009E0007B68002B03D1FFF733FE00235CE07B6ABA
:1009F000002B06D107F11403184600F0E7FE01238F
:100A00007B62FFF725FE00F0BDFBFFF707FE3B6AA8
:100A100093F844305BB2B3F1FF3F03D13B6A00224D
:100A200083F844203B6A93F845305BB2B3F1FF3F53
:100A300003D13B6A002283F84520FFF709FE3A1DE7
:100A400007F114031146184600F0D6FE0346002BAA
:100A500024D1386A00F0DFF90346002B18D03B6A36
:100A600010337A681146184600F0D2FD386A00F05B
:100A70006AF900F095FB0346002B7FF47CAF0C4B2A
:100A80004FF080521A60BFF34F8FBFF36F8F72E742
:100A9000386A00F058F900F083FB6CE7386A00F020
:100AA00052F900F07DFB002318462837BD4680BD73
:100AB00004ED00E080B58AB000AF786039600023B3
:100AC0007B627B68FB6100233B62FFF7A7FDFB694C
:100AD0009B6BBB61BB69002B24D0BB695A1EFB69B1
:100AE0009A63FB691B68002B04D101F041F90246AF
:100AF000FB699A60FB691B69002B0FD0FB691033FF
:100B0000184600F09BFD0346002B07D04C4B4FF0DE
:100B100080521A60BFF34F8FBFF36F8FFFF798FDBE
:100B2000012389E03B68002B03D1FFF791FD0023EF
:100B300082E07B6A002B06D107F10C03184600F017
:100B400045FE01237B62FFF783FD00F01BFBFFF7EF
:100B500065FDFB6993F844305BB2B3F1FF3F03D10D
:100B6000FB69002283F84420FB6993F845305BB2AF
:100B7000B3F1FF3F03D1FB69002283F84520FFF763
:100B800067FD3A4607F10C031146184600F034FEA3
:100B90000346002B32D1F86900F027F90346002BF9
:100BA00026D0FB691B68002B09D1FFF737FDFB69D5
:100BB0009B68184600F026FF3862FFF749FDFB6985
:100BC00024333A681146184600F022FDF86900F017
:100BD000BAF800F0E5FA0346002B7FF476AF184B25
:100BE0004FF080521A60BFF34F8FBFF36F8F6CE7E7
:100BF000F86900F0A8F800F0D3FA66E7F86900F0A9
:100C0000A2F800F0CDFAF86900F0EFF80346002BE7
:100C10003FF45BAF3B6A002B0DD0FFF7FFFCF86998
:100C200000F010F87861FB699B687969184601F05B
:100C300009F8FFF70DFD002318462837BD4680BD93
:100C400004ED00E080B485B000AF78607B685B6A3B
:100C5000002B06D07B681B6B1B68C3F10603FB608F
:100C600001E00023FB60FB6818461437BD4680BCDA
:100C7000704780B586B000AFF860B9607A60002335
:100C80007B61FB689B6B3B61FB681B6C002B0DD190
:100C9000FB681B68002B4DD1FB689B68184600F071
:100CA0004FFF7861FB6800229A6043E07B68002B6D
:100CB00019D1FB685868FB681B6C1A46B96801F0CB
:100CC0003DF9FB685A68FB681B6C1A44FB685A6064
:100CD000FB685A68FB689B689A422BD3FB681A68CA
:100CE000FB685A6026E0FB68D868FB681B6C1A46F4
:100CF000B96801F023F9FB68DA68FB681B6C5B429A
:100D00001A44FB68DA60FB68DA68FB681B689A4281
:100D100007D2FB689A68FB681B6C5B421A44FB684D
:100D2000DA607B68022B05D13B69002B02D03B695E
:100D3000013B3B613B695A1CFB689A637B6918461F
:100D40001837BD4680BD80B584B000AF7860FFF72E
:100D500065FC7B6893F84530FB7311E07B685B6A48
:100D6000002B12D07B682433184600F067FC034642
:100D7000002B01D000F08AFDFB7B013BDBB2FB7353
:100D800097F90F30002BE9DC00E000BF7B68FF2201
:100D900083F84520FFF75CFCFFF740FC7B6893F885
:100DA0004430BB7311E07B681B69002B12D07B6859
:100DB0001033184600F042FC0346002B01D000F02F
:100DC00065FDBB7B013BDBB2BB7397F90E30002B9B
:100DD000E9DC00E000BF7B68FF2283F84420FFF7D6
:100DE00037FC00BF1037BD4680BD80B584B000AF72
:100DF0007860FFF713FC7B689B6B002B02D101230B
:100E0000FB6001E00023FB60FFF722FCFB68184653
:100E10001037BD4680BD80B584B000AF7860FFF765
:100E2000FDFB7B689A6B7B68DB6B9A4202D10123E6
:100E3000FB6001E00023FB60FFF70AFCFB6818463B
:100E40001037BD4680BD80B400AF00BFBD4680BC3A
:100E5000704780B58CB004AFF860B9603B60134652
:100E6000FB80FB889B001846FFF772F978617B696D
:100E7000002B0ED05C20FFF76BF9F861FB69002BAB
:100E800003D0FB697A691A6305E07869FFF7FCF91A
:100E900001E00023FB61FB69002B13D0FA880023DB
:100EA0000393FB690293FB6A0193BB6A00933B685F
:100EB000B968F86800F00EF8F86900F091F80123BD
:100EC000BB6102E04FF0FF33BB61BB6918462037BE
:100ED000BD4680BD80B586B000AFF860B9607A606D
:100EE0003B60BB6A186B7B689B001A46A52100F02B
:100EF000F8FFBB6A1A6B7B6803F18043013B9B00E0
:100F000013443B613B6923F007033B61BB68002B43
:100F10001FD000237B6112E0BA687B691344197803
:100F2000BA6A7B69134434330A461A70BA687B691B
:100F300013441B78002B06D07B6901337B617B69EE
:100F40000F2BE9D900E000BFBB6A002283F84320E1
:100F500003E0BB6A002283F834203B6A052B01D9E9
:100F600005233B62BB6A3A6ADA62BB6A3A6ADA64B0
:100F7000BB6A00221A65BB6A04331846FFF705FAFC
:100F8000BB6A18331846FFF700FABB6ABA6A1A61DF
:100F90003B6AC3F10602BB6A9A61BB6ABA6A5A62CB
:100FA000BB6A543304220021184600F09AFFBB6A42
:100FB000583301220021184600F093FF3A68F9687F
:100FC0003869FFF79FFA0246BB6A1A607B6A002BFA
:100FD00002D07B6ABA6A1A6000BF1837BD4680BD6E
:100FE00080B584B000AF7860FFF718FB404B1B68FA
:100FF00001333F4A13603F4B1B68002B09D13D4A28
:101000007B6813603A4B1B68012B10D100F062FC27
:101010000DE0394B1B68002B09D1364B1B68DA6A8F
:101020007B68DB6A9A4202D8324A7B681360334B92
:101030001B680133314A1360304B1A687B685A646D
:101040007B68DB6A01229A402D4B1B6813432C4AB4
:1010500013607B68DA6A2B4913469B0013449B009C
:101060000B4404331B68FB607B68FA689A60FB687A
:101070009A687B68DA60FB689B687A6804325A6019
:101080007B681A1DFB689A607B68DA6A13469B00CE
:1010900013449B001B4A1A447B685A617B68DA6AD6
:1010A000184913469B0013449B000B441B68591CB2
:1010B000144813469B0013449B0003441960FFF738
:1010C000C7FA0D4B1B68002B0ED00A4B1B68DA6A5F
:1010D0007B68DB6A9A4207D20B4B4FF080521A6052
:1010E000BFF34F8FBFF36F8F00BF1037BD4680BD7A
:1010F0002C290020402800203829002048290020E1
:10110000342900204428002004ED00E080B584B09C
:1011100002AF154B01930023009300234FF4967206
:1011200012491348FFF795FE78607B68012B15D1B3
:101130004FF0BF0383F31188BFF36F8FBFF34F8F5F
:101140003B6000BF0B4B4FF0FF321A600A4B01228D
:101150001A600A4B00221A60FFF740FA084B1B681E
:1011600000BF0837BD4680BD50290020801F000801
:10117000A51800084C29002038290020302900201B
:101180000800002080B400AF044B1B680133034A01
:10119000136000BFBD4680BC704700BF54290020CB
:1011A00080B586B000AF00237B6100233B61FFF771
:1011B00035FA684B1B68013B664A1360654B1B6838
:1011C000002B40F0C080644B1B68002B00F0BB80FC
:1011D0008AE0624BDB68DB687B617B699B6ABB6092
:1011E0007B69DB697A69126A9A607B691B6A7A6932
:1011F000D2695A60BB685A687B6918339A4203D136
:101200007B691A6ABB685A607B6900229A62BB6874
:101210001B685A1EBB681A607B695B697B607B69CF
:101220009B687A69D2689A607B69DB687A699268A0
:101230005A607B685A687B6904339A4203D17B69A0
:10124000DA687B685A607B6900225A617B681B6898
:101250005A1E7B681A607B69DB6A01229A40404B08
:101260001B6813433E4A13607B69DA6A3D491346A3
:101270009B0013449B000B4404331B683B607B6959
:101280003A689A603B689A687B69DA603B689B6859
:101290007A6904325A607B691A1D3B689A607B69DF
:1012A000DA6A13469B0013449B002E4A1A447B695A
:1012B0005A617B69DA6A2B4913469B0013449B00F1
:1012C0000B441B68591C274813469B0013449B0082
:1012D000034419607B69DA6A234B1B68DB6A9A4214
:1012E00002D3224B01221A601C4B1B68002B7FF497
:1012F00070AF7B69002B01D000F06AFB1C4B1B68B0
:10130000FB60FB68002B10D000F036F80346002B82
:1013100002D0164B01221A60FB68013BFB60FB68A0
:10132000002BF1D1124B00221A60104B1B68002BCE
:1013300009D001233B610F4B4FF080521A60BFF37D
:101340004F8FBFF36F8FFFF783F93B69184618374C
:10135000BD4680BD542900202C290020EC28002007
:101360003429002044280020402800204029002063
:101370003C29002004ED00E080B588B000AF0023D8
:10138000FB61754B1B68002B40F0DC80734B1B68C6
:101390000133BB61714ABB691360BB69002B10D17B
:1013A0006F4B1B687B616F4B1B686D4A13606D4A06
:1013B0007B6913606C4B1B6801336B4A136000F050
:1013C00007FB6A4B1B68BA699A42C0F0A680644B5F
:1013D0001B681B68002B04D1644B4FF0FF321A606E
:1013E0009BE05F4B1B68DB68DB683B613B695B68CC
:1013F000FB60BA69FB689A4203D25C4AFB681360DF
:101400008BE03B695B69BB603B699B683A69D2686A
:101410009A603B69DB683A6992685A60BB685A68AF
:101420003B6904339A4203D13B69DA68BB685A606E
:101430003B6900225A61BB681B685A1EBB681A6070
:101440003B699B6A002B1ED03B699B6A7B603B69B2
:10145000DB693A69126A9A603B691B6A3A69D26928
:101460005A607B685A683B6918339A4203D13B69DA
:101470001A6A7B685A603B6900229A627B681B6823
:101480005A1E7B681A603B69DB6A01229A40384B1E
:101490001B681343364A13603B69DA6A35491346C1
:1014A0009B0013449B000B4404331B683B603B6967
:1014B0003A689A603B689A683B69DA603B689B6867
:1014C0003A6904325A603B691A1D3B689A603B696D
:1014D000DA6A13469B0013449B00264A1A443B6970
:1014E0005A613B69DA6A234913469B0013449B0007
:1014F0000B441B68591C1F4813469B0013449B0058
:10150000034419603B69DA6A1B4B1B68DB6A9A4229
:10151000FFF45DAF0123FB6159E7174B1B68DA6AE3
:10152000144913469B0013449B000B441B68012B7A
:1015300001D90123FB61114B1B68002B07D001234C
:10154000FB6104E00E4B1B6801330D4A1360FB691D
:1015500018462037BD4680BD542900203029002080
:10156000E4280020E8280020442900204C290020FD
:101570003429002044280020402800204029002051
:101580003C29002080B485B000AF1C4B1B68002BA9
:1015900003D01B4B01221A602AE0194B00221A606B
:1015A000184B1B687B607B68B3FA83F3FB70FB7896
:1015B000C3F11F03FB60FA6813469B0013449B00B2
:1015C000114A1344BB60BB685B685A68BB685A60C9
:1015D000BB685A68BB6808339A4204D1BB685B6831
:1015E0005A68BB685A60BB685B68DB68074A13606F
:1015F00000BF1437BD4680BC704700BF542900208F
:1016000040290020342900204428002040280020C0
:1016100080B582B000AF78603960074B1B68183323
:1016200019467868FEF7BDFE0121386800F0B4FB6A
:1016300000BF0837BD4680BD4028002080B489B077
:1016400000AF78607B68DB68DB68BB61BB699B6A65
:101650007B61BB69DB69BA69126A9A60BB691B6A04
:10166000BA69D2695A607B695A68BB6918339A4271
:1016700003D1BB691A6A7B695A60BB6900229A620E
:101680007B691B685A1E7B691A604A4B1B68002BDA
:101690005ED1BB695B69FB60BB699B68BA69D26854
:1016A0009A60BB69DB68BA6992685A60FB685A68DD
:1016B000BB6904339A4203D1BB69DA68FB685A609C
:1016C000BB6900225A61FB681B685A1EFB681A60DE
:1016D000BB69DB6A01229A40374B1B681343364AC9
:1016E0001360BB69DA6A354913469B0013449B00BB
:1016F0000B4404331B68BB60BB69BA689A60BB6863
:101700009A68BB69DA60BB689B68BA6904325A6040
:10171000BB691A1DBB689A60BB69DA6A13469B00F5
:1017200013449B00254A1A44BB695A61BB69DA6AB3
:10173000224913469B0013449B000B441B68591C11
:101740001E4813469B0013449B00034419601BE092
:101750001B4B5B683B61BB693A69DA613B699A681C
:10176000BB691A623B699B68BA6918325A60BB69E7
:1017700003F118023B699A60BB69114A9A62104BE7
:101780001B6801330E4A1360BB69DA6A0D4B1B6894
:10179000DB6A9A4205D90123FB610B4B01221A60D7
:1017A00001E00023FB61FB6918462437BD4680BC7D
:1017B000704700BF5429002034290020442800200D
:1017C000EC280020402800204029002080B483B06D
:1017D00000AF7860064B1A687B681A60054B1A6880
:1017E0007B685A6000BF0C37BD4680BC704700BFA5
:1017F000442900203029002080B586B000AF7860F1
:101800003960FEF70BFF1F4B1B683B617B685B6811
:101810003A69D31AFB603B681B68B3F1FF3F02D102
:1018200000237B6126E07B681A68174B1B689A428D
:101830000AD07B685B683A699A4205D301237B61D1
:101840003B6800221A6015E03B681B68FA689A4200
:101850000BD23B681A68FB68D21A3B681A6078683A
:10186000FFF7B4FF00237B6104E03B6800221A60AD
:1018700001237B61FEF7ECFE7B6918461837BD46F5
:1018800080BD00BF302900204429002080B400AF73
:10189000034B01221A6000BFBD4680BC704700BFE9
:1018A0004029002080B582B000AF786000F052F887
:1018B000064B1B68012BF9D9054B4FF080521A607B
:1018C000BFF34F8FBFF36F8FF0E700BF44280020B6
:1018D00004ED00E080B582B000AF00237B600CE037
:1018E0007A6813469B0013449B00124A134418461F
:1018F000FEF72CFD7B6801337B607B68052BEFD9FD
:101900000D48FEF723FD0D48FEF720FD0C48FEF7BD
:101910001DFD0C48FEF71AFD0B48FEF717FD0B4B9B
:10192000054A1A600A4B054A1A6000BF0837BD46CF
:1019300080BD00BF44280020BC280020D028002003
:10194000EC2800200029002018290020E42800208D
:10195000E828002080B582B000AF19E0FEF75EFEF7
:10196000104BDB68DB687B607B6804331846FEF74E
:1019700050FD0D4B1B68013B0B4A13600B4B1B6862
:10198000013B0A4A1360FEF763FE786800F010F826
:10199000064B1B68002BE1D100BF00BF0837BD46D6
:1019A00080BD00BF002900202C2900201429002020
:1019B00080B582B000AF78607B681B6B1846FEF77D
:1019C00063FC7868FEF760FC00BF0837BD4680BD49
:1019D00080B400AF094B1B681B68002B04D1084B77
:1019E0004FF0FF321A6005E0044B1B68DB681B6890
:1019F000034A136000BFBD4680BC7047E428002046
:101A00004C29002080B586B000AF78607B683B61D0
:101A100000237B617B68002B00F087803B69DA6ADA
:101A2000444B1B68DB6A9A4276D23B699B69002B68
:101A300006DB404B1B68DB6AC3F106023B699A6117
:101A40003B6959693B69DA6A13469B0013449B0062
:101A5000394A1344994257D13B6904331846FEF77B
:101A6000D8FC0346002B0AD13B69DB6A012202FA4B
:101A700003F3DA43314B1B681340304A13602D4B9C
:101A80001B68DA6A3B69DA623B69DB6A01229A40C9
:101A90002A4B1B681343294A13603B69DA6A2649BB
:101AA00013469B0013449B000B4404331B68FB60EC
:101AB0003B69FA689A60FB689A683B69DA60FB6880
:101AC0009B683A6904325A603B691A1DFB689A6048
:101AD0003B69DA6A13469B0013449B00164A1A447A
:101AE0003B695A613B69DA6A134913469B00134408
:101AF0009B000B441B68591C0F4813469B00134462
:101B00009B000344196004E00A4B1B68DA6A3B69D6
:101B1000DA6201237B6108E03B69DA6C054B1B68E4
:101B2000DB6A9A4201D201237B617B691846183730
:101B3000BD4680BD402800204428002034290020D4
:101B400080B586B000AF78607B683B6100237B6125
:101B50007B68002B6CD03B691B6D5A1E3B691A6574
:101B60003B69DA6A3B69DB6C9A4261D03B691B6D69
:101B7000002B5DD13B6904331846FEF74AFC03464F
:101B8000002B0AD13B69DB6A012202FA03F3DA4334
:101B90002A4B1B681340294A13603B69DA6C3B6986
:101BA000DA623B69DB6AC3F106023B699A613B6911
:101BB000DB6A01229A40214B1B6813431F4A1360C2
:101BC0003B69DA6A1E4913469B0013449B000B4491
:101BD00004331B68FB603B69FA689A60FB689A688B
:101BE0003B69DA60FB689B683A6904325A603B697A
:101BF0001A1DFB689A603B69DA6A13469B0013441E
:101C00009B000F4A1A443B695A613B69DA6A0C49E6
:101C100013469B0013449B000B441B68591C084847
:101C200013469B0013449B000344196001237B610E
:101C30007B6918461837BD4680BD00BF3429002097
:101C40004428002080B588B000AF786039607B6898
:101C5000BB6101237B617B68002B00F08180BB6945
:101C6000DB6C3A689A4202D93B68FB6102E0BB69CF
:101C7000DB6CFB61BB69DB6AFA699A4270D0BB69B5
:101C80001B6D7A699A426BD1BB69DB6A3B61BB69A8
:101C9000FA69DA62BB699B69002B04DBFB69C3F15B
:101CA0000602BB699A61BB6959693A6913469B0090
:101CB00013449B002C4A1344994251D1BB6904330D
:101CC0001846FEF7A6FB0346002B0AD1BB69DB6A68
:101CD000012202FA03F3DA43244B1B681340234A20
:101CE0001360BB69DB6A01229A40204B1B681343D7
:101CF0001E4A1360BB69DA6A1B4913469B001344F2
:101D00009B000B4404331B68FB60BB69FA689A6054
:101D1000FB689A68BB69DA60FB689B68BA69043241
:101D20005A60BB691A1DFB689A60BB69DA6A134680
:101D30009B0013449B000C4A1A44BB695A61BB695F
:101D4000DA6A094913469B0013449B000B441B6845
:101D5000591C054813469B0013449B00034419601B
:101D600000BF2037BD4680BD442800203429002014
:101D700080B400AF074B1B68002B04D0054B1B68D9
:101D80001A6D01321A65034B1B681846BD4680BCAC
:101D9000704700BF4028002080B586B000AF786053
:101DA0003960364B1B687B61354B1B680433184622
:101DB000FEF72FFB0346002B0BD1314B1B68DB6A70
:101DC000012202FA03F3DA432E4B1B6813402D4A1B
:101DD00013607B68B3F1FF3F24D13B68002B21D017
:101DE000294B5B683B61264B1B683A699A60244B20
:101DF0001B683A699268DA60214B1A683B699B68F4
:101E000004325A601E4B1B681A1D3B699A601C4BBA
:101E10001B681D4A5A611C4B1B6801331A4A136028
:101E200000BF26E07A697B681344FB60144B1B6893
:101E3000FA685A60FA687B699A4209D2134B1A68A9
:101E40000F4B1B68043319461046FEF7AAFA10E040
:101E50000F4B1A680A4B1B68043319461046FEF7ED
:101E6000A0FA0C4B1B68FA689A4202D2094AFB6836
:101E7000136000BF1837BD4680BD00BF3029002069
:101E8000402800203429002018290020E8280020BC
:101E9000E42800204C290020FEF7D5FF0B480C4910
:101EA0000C4A002302E0D458C4500433C4188C42B6
:101EB000F9D3094A094C002301E013600432A2421D
:101EC000FBD300F017F8FEF7CDFA704700000020B2
:101ED0000C000020901F00080C0000205829002052
:101EE000FEE703460244934200D1704703F8011B0A
:101EF000F9E7000070B500260C4D0D4C641BA410D2
:101F0000A64209D100F028F800260A4D0A4C641BAD
:101F1000A410A64205D170BD55F8043B9847013680
:101F2000EEE755F8043B98470136F2E7881F0008B2
:101F3000881F0008881F00088C1F00080A4491426F
:101F400000F1FF3300D1704710B511F8014B9142F9
:101F500003F8014FF9D110BDF8B500BFF8BC08BCBB
:101F60009E467047F8B500BFF8BC08BC9E46704757
:101F70005461736B310000005461736B32000000D8
:081F800049444C45000000003B
:041F88003501000817
:041F8C001101000837
:0C1F9000F8270000AAAAAAAA0500000079
:0400000508001E9938
:00000001FF
