:020000040800F2
:100000000050002021020008B9010008BF010008CB
:10001000C5010008CB010008D10100080000000064
:10002000000000000000000000000000D7010008F0
:10003000E301000800000000EF010008FB010008D8
:1000400069020008690200086902000869020008E4
:1000500069020008690200086902000869020008D4
:100060006902000869020008070200086902000826
:1000700069020008690200086902000869020008B4
:1000800069020008690200086902000869020008A4
:100090006902000869020008690200086902000894
:1000A0006902000869020008690200086902000884
:1000B0006902000869020008690200086902000874
:1000C0006902000869020008690200086902000864
:1000D0006902000869020008690200086902000854
:1000E00069020008690200086902000800000000B7
:1000F0000000000000000000000000000000000000
:0C01000000000000000000005FF808F1A3
:10010C0010B5054C237833B9044B13B10448AFF345
:10011C0000800123237010BD0400002000000000AB
:10012C001C03000808B5034B1BB103490348AFF38C
:10013C00008008BD00000000080000201C0300081F
:10014C0080B400AF084B0D229A61084B4FF033324C
:10015C001A60074B4FF044321A60044B0222DA60EB
:10016C0000BFBD4680BC7047001002400008014033
:10017C00000C014080B500AFFFF7E2FF084B0122F5
:10018C00DA60084B10221A60064B10225A60054B9D
:10019C0010229A60044B4FF480621A60FEE700BF95
:1001AC00000001400004014000E100E080B400AF19
:1001BC00FEE780B400AFFEE780B400AFFEE780B48A
:1001CC0000AFFEE780B400AFFEE780B400AF00BF25
:1001DC00BD4680BC704780B400AF00BFBD4680BC3C
:1001EC00704780B400AF00BFBD4680BC704780B57F
:1001FC0000AF00F035F800BF80BD80B500AF102017
:10020C0000F040F800BF80BD80B400AF00BFBD4619
:10021C0080BC7047FFF7F8FF0B480C490C4A0023D1
:10022C0002E0D458C4500433C4188C42F9D3094AA0
:10023C00094C002301E013600432A242FBD300F00E
:10024C0043F8FFF797FF70470000002004000020E0
:10025C003C0300080400002024000020FEE70000FE
:10026C0080B400AF054B1B781A46054B1B68134432
:10027C00034A136000BFBD4680BC704700000020DD
:10028C002000002080B582B000AF0346FB80084BF5
:10029C005A69FB881340002B06D0054AFB88536132
:1002AC00FB88184600F006F800BF0837BD4680BD35
:1002BC000004014080B483B000AF0346FB8000BF54
:1002CC000C37BD4680BC704770B500260C4D0D4CEC
:1002DC00641BA410A64209D100F01AF800260A4D9E
:1002EC000A4C641BA410A64205D170BD55F8043B02
:1002FC0098470136EEE755F8043B98470136F2E78C
:10030C0034030008340300083403000838030008E1
:10031C00F8B500BFF8BC08BC9E467047F8B500BFE6
:08032C00F8BC08BC9E467047B6
:04033400310100088B
:040338000D010008AB
:04033C0001000000BC
:0400000508000221CC
:00000001FF
